{
  "transactions": [
    {
      "hash": "0xac11f6919f99335826699925428fef0c0648e5e629f63c8ead29f890eff5f1bc",
      "transactionType": "CALL",
      "contractName": "LinkToken",
      "contractAddress": "0x779877A7B0D9E8603169DdbD7836e478b4624789",
      "function": "transferAndCall(address,uint256,bytes):(bool)",
      "arguments": [
        "0x8103B0A8A00be2DDC778e6e7eaa21791Cd364625",
        "3000000000000000000 \u001b[2;49;39m[3e18]\u001b[0m",
        "0x0000000000000000000000000000000000000000000000000000000000000c96"
      ],
      "transaction": {
        "type": "0x02",
        "from": "0x7bc0d5351940bfce986e72a94e91eb9f76f8343b",
        "to": "0x779877a7b0d9e8603169ddbd7836e478b4624789",
        "gas": "0x1b43f",
        "value": "0x0",
        "data": "0x4000aea00000000000000000000000008103b0a8a00be2ddc778e6e7eaa21791cd36462500000000000000000000000000000000000000000000000029a2241af62c0000000000000000000000000000000000000000000000000000000000000000006000000000000000000000000000000000000000000000000000000000000000200000000000000000000000000000000000000000000000000000000000000c96",
        "nonce": "0x13",
        "accessList": []
      },
      "additionalContracts": [],
      "isFixedGasLimit": false
    }
  ],
  "receipts": [],
  "libraries": [],
  "pending": [
    "0xac11f6919f99335826699925428fef0c0648e5e629f63c8ead29f890eff5f1bc"
  ],
  "returns": {},
  "timestamp": 1687968213,
  "chain": 11155111,
  "multi": false,
  "commit": "d664f10"
}