{
  "transactions": [
    {
      "hash": "0xac11f6919f99335826699925428fef0c0648e5e629f63c8ead29f890eff5f1bc",
      "transactionType": "CALL",
      "contractName": "LinkToken",
      "contractAddress": "0x779877A7B0D9E8603169DdbD7836e478b4624789",
      "function": "transferAndCall(address,uint256,bytes):(bool)",
      "arguments": [
        "0x8103B0A8A00be2DDC778e6e7eaa21791Cd364625",
        "3000000000000000000 \u001b[2;49;39m[3e18]\u001b[0m",
        "0x0000000000000000000000000000000000000000000000000000000000000c96"
      ],
      "transaction": {
        "type": "0x02",
        "from": "0x7bc0d5351940bfce986e72a94e91eb9f76f8343b",
        "to": "0x779877a7b0d9e8603169ddbd7836e478b4624789",
        "gas": "0x1b43f",
        "value": "0x0",
        "data": "0x4000aea00000000000000000000000008103b0a8a00be2ddc778e6e7eaa21791cd36462500000000000000000000000000000000000000000000000029a2241af62c0000000000000000000000000000000000000000000000000000000000000000006000000000000000000000000000000000000000000000000000000000000000200000000000000000000000000000000000000000000000000000000000000c96",
        "nonce": "0x13",
        "accessList": []
      },
      "additionalContracts": [],
      "isFixedGasLimit": false
    }
  ],
  "receipts": [
    {
      "transactionHash": "0xac11f6919f99335826699925428fef0c0648e5e629f63c8ead29f890eff5f1bc",
      "transactionIndex": "0x5",
      "blockHash": "0x02314c10d2a12d9f05ca81ab1da4b96059b236add72c9b36a589e2f1f06ad61d",
      "blockNumber": "0x39c474",
      "from": "0x7bc0d5351940bfCE986e72A94E91eB9f76f8343b",
      "to": "0x779877A7B0D9E8603169DdbD7836e478b4624789",
      "cumulativeGasUsed": "0x7d7e0",
      "gasUsed": "0x12a4a",
      "contractAddress": null,
      "logs": [
        {
          "address": "0x779877A7B0D9E8603169DdbD7836e478b4624789",
          "topics": [
            "0xddf252ad1be2c89b69c2b068fc378daa952ba7f163c4a11628f55a4df523b3ef",
            "0x0000000000000000000000007bc0d5351940bfce986e72a94e91eb9f76f8343b",
            "0x0000000000000000000000008103b0a8a00be2ddc778e6e7eaa21791cd364625"
          ],
          "data": "0x00000000000000000000000000000000000000000000000029a2241af62c0000",
          "blockHash": "0x02314c10d2a12d9f05ca81ab1da4b96059b236add72c9b36a589e2f1f06ad61d",
          "blockNumber": "0x39c474",
          "transactionHash": "0xac11f6919f99335826699925428fef0c0648e5e629f63c8ead29f890eff5f1bc",
          "transactionIndex": "0x5",
          "logIndex": "0x11",
          "removed": false
        },
        {
          "address": "0x779877A7B0D9E8603169DdbD7836e478b4624789",
          "topics": [
            "0xe19260aff97b920c7df27010903aeb9c8d2be5d310a2c67824cf3f15396e4c16",
            "0x0000000000000000000000007bc0d5351940bfce986e72a94e91eb9f76f8343b",
            "0x0000000000000000000000008103b0a8a00be2ddc778e6e7eaa21791cd364625"
          ],
          "data": "0x00000000000000000000000000000000000000000000000029a2241af62c0000000000000000000000000000000000000000000000000000000000000000004000000000000000000000000000000000000000000000000000000000000000200000000000000000000000000000000000000000000000000000000000000c96",
          "blockHash": "0x02314c10d2a12d9f05ca81ab1da4b96059b236add72c9b36a589e2f1f06ad61d",
          "blockNumber": "0x39c474",
          "transactionHash": "0xac11f6919f99335826699925428fef0c0648e5e629f63c8ead29f890eff5f1bc",
          "transactionIndex": "0x5",
          "logIndex": "0x12",
          "removed": false
        },
        {
          "address": "0x8103B0A8A00be2DDC778e6e7eaa21791Cd364625",
          "topics": [
            "0xd39ec07f4e209f627a4c427971473820dc129761ba28de8906bd56f57101d4f8",
            "0x0000000000000000000000000000000000000000000000000000000000000c96"
          ],
          "data": "0x000000000000000000000000000000000000000000000000000000000000000000000000000000000000000000000000000000000000000029a2241af62c0000",
          "blockHash": "0x02314c10d2a12d9f05ca81ab1da4b96059b236add72c9b36a589e2f1f06ad61d",
          "blockNumber": "0x39c474",
          "transactionHash": "0xac11f6919f99335826699925428fef0c0648e5e629f63c8ead29f890eff5f1bc",
          "transactionIndex": "0x5",
          "logIndex": "0x13",
          "removed": false
        }
      ],
      "status": "0x1",
      "logsBloom": "0x0000001400000000000000000000000000000000000000020000000002000000000000000000800000020000000000000000000000000800000000000000000000000000000000000000000800000000000000000000000000002000000000000000000000001000000000000000000000000000400000000000001000000000000000000c000020000000000000800010000020000000000000000000000000000000000000000000200000000000000000000000000000000400000000000000000002000000000000000000000000000000000000000100000000000000000000000000000000000000000000000000000000000000000000000008000100",
      "type": "0x2",
      "effectiveGasPrice": "0xb35e10d9"
    }
  ],
  "libraries": [],
  "pending": [],
  "returns": {},
  "timestamp": 1687968220,
  "chain": 11155111,
  "multi": false,
  "commit": "d664f10"
}